{
  "abi": [
    {
      "type": "constructor",
      "inputs": [],
      "stateMutability": "nonpayable"
    },
    {
      "type": "function",
      "name": "casteVote",
      "inputs": [
        {
          "name": "_proposalHash",
          "type": "bytes32",
          "internalType": "bytes32"
        },
        {
          "name": "_choice",
          "type": "uint256",
          "internalType": "uint256"
        }
      ],
      "outputs": [],
      "stateMutability": "payable"
    },
    {
      "type": "function",
      "name": "choiceVoted",
      "inputs": [
        {
          "name": "",
          "type": "bytes32",
          "internalType": "bytes32"
        },
        {
          "name": "",
          "type": "address",
          "internalType": "address"
        }
      ],
      "outputs": [
        {
          "name": "",
          "type": "uint256",
          "internalType": "uint256"
        }
      ],
      "stateMutability": "view"
    },
    {
      "type": "function",
      "name": "createProposal",
      "inputs": [
        {
          "name": "_proposalExpiry",
          "type": "uint256",
          "internalType": "uint256"
        },
        {
          "name": "_minValueToVote",
          "type": "uint256",
          "internalType": "uint256"
        },
        {
          "name": "_proposalHash",
          "type": "bytes32",
          "internalType": "bytes32"
        }
      ],
      "outputs": [],
      "stateMutability": "payable"
    },
    {
      "type": "function",
      "name": "defaultMinValueToVote",
      "inputs": [],
      "outputs": [
        {
          "name": "",
          "type": "uint256",
          "internalType": "uint256"
        }
      ],
      "stateMutability": "view"
    },
    {
      "type": "function",
      "name": "hasVoted",
      "inputs": [
        {
          "name": "",
          "type": "bytes32",
          "internalType": "bytes32"
        },
        {
          "name": "",
          "type": "address",
          "internalType": "address"
        }
      ],
      "outputs": [
        {
          "name": "",
          "type": "bool",
          "internalType": "bool"
        }
      ],
      "stateMutability": "view"
    },
    {
      "type": "function",
      "name": "minValueToCreateProposal",
      "inputs": [],
      "outputs": [
        {
          "name": "",
          "type": "uint256",
          "internalType": "uint256"
        }
      ],
      "stateMutability": "view"
    },
    {
      "type": "function",
      "name": "owner",
      "inputs": [],
      "outputs": [
        {
          "name": "",
          "type": "address",
          "internalType": "address"
        }
      ],
      "stateMutability": "view"
    },
    {
      "type": "function",
      "name": "proposalByHash",
      "inputs": [
        {
          "name": "",
          "type": "bytes32",
          "internalType": "bytes32"
        }
      ],
      "outputs": [
        {
          "name": "creator",
          "type": "address",
          "internalType": "address"
        },
        {
          "name": "proposalCreatedAt",
          "type": "uint256",
          "internalType": "uint256"
        },
        {
          "name": "proposalExpiry",
          "type": "uint256",
          "internalType": "uint256"
        },
        {
          "name": "minValueToVote",
          "type": "uint256",
          "internalType": "uint256"
        },
        {
          "name": "proposalHash",
          "type": "bytes32",
          "internalType": "bytes32"
        }
      ],
      "stateMutability": "view"
    },
    {
      "type": "function",
      "name": "proposals",
      "inputs": [
        {
          "name": "",
          "type": "uint256",
          "internalType": "uint256"
        }
      ],
      "outputs": [
        {
          "name": "creator",
          "type": "address",
          "internalType": "address"
        },
        {
          "name": "proposalCreatedAt",
          "type": "uint256",
          "internalType": "uint256"
        },
        {
          "name": "proposalExpiry",
          "type": "uint256",
          "internalType": "uint256"
        },
        {
          "name": "minValueToVote",
          "type": "uint256",
          "internalType": "uint256"
        },
        {
          "name": "proposalHash",
          "type": "bytes32",
          "internalType": "bytes32"
        }
      ],
      "stateMutability": "view"
    },
    {
      "type": "function",
      "name": "votesPerChoice",
      "inputs": [
        {
          "name": "",
          "type": "bytes32",
          "internalType": "bytes32"
        },
        {
          "name": "",
          "type": "uint256",
          "internalType": "uint256"
        }
      ],
      "outputs": [
        {
          "name": "",
          "type": "uint256",
          "internalType": "uint256"
        }
      ],
      "stateMutability": "view"
    },
    {
      "type": "function",
      "name": "withdraw",
      "inputs": [],
      "outputs": [],
      "stateMutability": "nonpayable"
    },
    {
      "type": "event",
      "name": "ProposalCreated",
      "inputs": [
        {
          "name": "creator",
          "type": "address",
          "indexed": false,
          "internalType": "address"
        },
        {
          "name": "proposalCreatedAt",
          "type": "uint256",
          "indexed": false,
          "internalType": "uint256"
        },
        {
          "name": "proposalExpiry",
          "type": "uint256",
          "indexed": false,
          "internalType": "uint256"
        },
        {
          "name": "minValueToVote",
          "type": "uint256",
          "indexed": false,
          "internalType": "uint256"
        },
        {
          "name": "proposalHash",
          "type": "bytes32",
          "indexed": false,
          "internalType": "bytes32"
        }
      ],
      "anonymous": false
    },
    {
      "type": "event",
      "name": "VoteCasted",
      "inputs": [
        {
          "name": "caster",
          "type": "address",
          "indexed": false,
          "internalType": "address"
        },
        {
          "name": "proposalHash",
          "type": "bytes32",
          "indexed": false,
          "internalType": "bytes32"
        },
        {
          "name": "choice",
          "type": "uint256",
          "indexed": false,
          "internalType": "uint256"
        }
      ],
      "anonymous": false
    }
  ],
  "bytecode": {
    "object": "0x6080604052348015600e575f5ffd5b503360025f6101000a81548173ffffffffffffffffffffffffffffffffffffffff021916908373ffffffffffffffffffffffffffffffffffffffff1602179055506611c37937e080005f81905550662386f26fc1000060018190555061127f806100775f395ff3fe60806040526004361061009b575f3560e01c80634be2fcf7116100635780634be2fcf71461017b5780638da5cb5b146101a5578063a9a51c89146101cf578063aadc3b721461020b578063bb8a4f8114610247578063f43dba77146102835761009b565b8063013cf08b1461009f5780632e7107a2146100df5780633ccfd60b146100fb5780633fee0dfa1461011157806343e8da3514610151575b5f5ffd5b3480156100aa575f5ffd5b506100c560048036038101906100c09190610ba0565b61029f565b6040516100d6959493929190610c31565b60405180910390f35b6100f960048036038101906100f49190610cac565b6102ff565b005b348015610106575f5ffd5b5061010f61052f565b005b34801561011c575f5ffd5b5061013760048036038101906101329190610cfc565b610669565b604051610148959493929190610c31565b60405180910390f35b34801561015c575f5ffd5b506101656106ba565b6040516101729190610d27565b60405180910390f35b348015610186575f5ffd5b5061018f6106c0565b60405161019c9190610d27565b60405180910390f35b3480156101b0575f5ffd5b506101b96106c5565b6040516101c69190610d40565b60405180910390f35b3480156101da575f5ffd5b506101f560048036038101906101f09190610d83565b6106ea565b6040516102029190610d27565b60405180910390f35b348015610216575f5ffd5b50610231600480360381019061022c9190610d83565b61070a565b60405161023e9190610ddb565b60405180910390f35b348015610252575f5ffd5b5061026d60048036038101906102689190610df4565b610734565b60405161027a9190610d27565b60405180910390f35b61029d60048036038101906102989190610df4565b610754565b005b600381815481106102ae575f80fd5b905f5260205f2090600502015f91509050805f015f9054906101000a900473ffffffffffffffffffffffffffffffffffffffff16908060010154908060020154908060030154908060040154905085565b428311610341576040517f08c379a000000000000000000000000000000000000000000000000000000000815260040161033890610e8c565b60405180910390fd5b600154341015610386576040517f08c379a000000000000000000000000000000000000000000000000000000000815260040161037d90610f1a565b60405180910390fd5b5f8203610392575f5491505b5f6040518060a001604052803373ffffffffffffffffffffffffffffffffffffffff168152602001428152602001858152602001848152602001838152509050600381908060018154018082558091505060019003905f5260205f2090600502015f909190919091505f820151815f015f6101000a81548173ffffffffffffffffffffffffffffffffffffffff021916908373ffffffffffffffffffffffffffffffffffffffff1602179055506020820151816001015560408201518160020155606082015181600301556080820151816004015550508060075f8481526020019081526020015f205f820151815f015f6101000a81548173ffffffffffffffffffffffffffffffffffffffff021916908373ffffffffffffffffffffffffffffffffffffffff160217905550602082015181600101556040820151816002015560608201518160030155608082015181600401559050507f5290f231c6fc51f85c5e510200b3569dc71694ab8d5720bff43d23af42c44eef3342868686604051610521959493929190610c31565b60405180910390a150505050565b60025f9054906101000a900473ffffffffffffffffffffffffffffffffffffffff1673ffffffffffffffffffffffffffffffffffffffff163373ffffffffffffffffffffffffffffffffffffffff16146105be576040517f08c379a00000000000000000000000000000000000000000000000000000000081526004016105b590610f82565b60405180910390fd5b5f3373ffffffffffffffffffffffffffffffffffffffff16476040516105e390610fcd565b5f6040518083038185875af1925050503d805f811461061d576040519150601f19603f3d011682016040523d82523d5f602084013e610622565b606091505b5050905080610666576040517f08c379a000000000000000000000000000000000000000000000000000000000815260040161065d9061102b565b60405180910390fd5b50565b6007602052805f5260405f205f91509050805f015f9054906101000a900473ffffffffffffffffffffffffffffffffffffffff16908060010154908060020154908060030154908060040154905085565b60015481565b5f5481565b60025f9054906101000a900473ffffffffffffffffffffffffffffffffffffffff1681565b6005602052815f5260405f20602052805f5260405f205f91509150505481565b6004602052815f5260405f20602052805f5260405f205f915091509054906101000a900460ff1681565b6006602052815f5260405f20602052805f5260405f205f91509150505481565b5f60075f8481526020019081526020015f206040518060a00160405290815f82015f9054906101000a900473ffffffffffffffffffffffffffffffffffffffff1673ffffffffffffffffffffffffffffffffffffffff1673ffffffffffffffffffffffffffffffffffffffff16815260200160018201548152602001600282015481526020016003820154815260200160048201548152505090505f816020015111610835576040517f08c379a000000000000000000000000000000000000000000000000000000000815260040161082c90611093565b60405180910390fd5b8060400151421061087b576040517f08c379a0000000000000000000000000000000000000000000000000000000008152600401610872906110fb565b60405180910390fd5b80606001513410156108c2576040517f08c379a00000000000000000000000000000000000000000000000000000000081526004016108b990611163565b60405180910390fd5b60045f8481526020019081526020015f205f3373ffffffffffffffffffffffffffffffffffffffff1673ffffffffffffffffffffffffffffffffffffffff1681526020019081526020015f205f9054906101000a900460ff16610a10578160055f8581526020019081526020015f205f3373ffffffffffffffffffffffffffffffffffffffff1673ffffffffffffffffffffffffffffffffffffffff1681526020019081526020015f2081905550600160065f8581526020019081526020015f205f8481526020019081526020015f205f8282546109a091906111ae565b92505081905550600160045f8581526020019081526020015f205f3373ffffffffffffffffffffffffffffffffffffffff1673ffffffffffffffffffffffffffffffffffffffff1681526020019081526020015f205f6101000a81548160ff021916908315150217905550610b29565b5f60055f8581526020019081526020015f205f3373ffffffffffffffffffffffffffffffffffffffff1673ffffffffffffffffffffffffffffffffffffffff1681526020019081526020015f20549050808314610b27578260055f8681526020019081526020015f205f3373ffffffffffffffffffffffffffffffffffffffff1673ffffffffffffffffffffffffffffffffffffffff1681526020019081526020015f2081905550600160065f8681526020019081526020015f205f8581526020019081526020015f205f828254610ae891906111ae565b92505081905550600160065f8681526020019081526020015f205f8381526020019081526020015f205f828254610b1f91906111e1565b925050819055505b505b7f24c59916cd67c9a0a1b9e6044acdfe9ce00172a3a7d878abaa67b6d6ec758dba338484604051610b5c93929190611214565b60405180910390a1505050565b5f5ffd5b5f819050919050565b610b7f81610b6d565b8114610b89575f5ffd5b50565b5f81359050610b9a81610b76565b92915050565b5f60208284031215610bb557610bb4610b69565b5b5f610bc284828501610b8c565b91505092915050565b5f73ffffffffffffffffffffffffffffffffffffffff82169050919050565b5f610bf482610bcb565b9050919050565b610c0481610bea565b82525050565b610c1381610b6d565b82525050565b5f819050919050565b610c2b81610c19565b82525050565b5f60a082019050610c445f830188610bfb565b610c516020830187610c0a565b610c5e6040830186610c0a565b610c6b6060830185610c0a565b610c786080830184610c22565b9695505050505050565b610c8b81610c19565b8114610c95575f5ffd5b50565b5f81359050610ca681610c82565b92915050565b5f5f5f60608486031215610cc357610cc2610b69565b5b5f610cd086828701610b8c565b9350506020610ce186828701610b8c565b9250506040610cf286828701610c98565b9150509250925092565b5f60208284031215610d1157610d10610b69565b5b5f610d1e84828501610c98565b91505092915050565b5f602082019050610d3a5f830184610c0a565b92915050565b5f602082019050610d535f830184610bfb565b92915050565b610d6281610bea565b8114610d6c575f5ffd5b50565b5f81359050610d7d81610d59565b92915050565b5f5f60408385031215610d9957610d98610b69565b5b5f610da685828601610c98565b9250506020610db785828601610d6f565b9150509250929050565b5f8115159050919050565b610dd581610dc1565b82525050565b5f602082019050610dee5f830184610dcc565b92915050565b5f5f60408385031215610e0a57610e09610b69565b5b5f610e1785828601610c98565b9250506020610e2885828601610b8c565b9150509250929050565b5f82825260208201905092915050565b7f496d706f737369626c65206578706972792074696d65000000000000000000005f82015250565b5f610e76601683610e32565b9150610e8182610e42565b602082019050919050565b5f6020820190508181035f830152610ea381610e6a565b9050919050565b7f4e6f7420656e6f75676820616d6f756e7420746f206372656174652070726f705f8201527f6f73616c00000000000000000000000000000000000000000000000000000000602082015250565b5f610f04602483610e32565b9150610f0f82610eaa565b604082019050919050565b5f6020820190508181035f830152610f3181610ef8565b9050919050565b7f4e6f7420746865206f776e6572000000000000000000000000000000000000005f82015250565b5f610f6c600d83610e32565b9150610f7782610f38565b602082019050919050565b5f6020820190508181035f830152610f9981610f60565b9050919050565b5f81905092915050565b50565b5f610fb85f83610fa0565b9150610fc382610faa565b5f82019050919050565b5f610fd782610fad565b9150819050919050565b7f5472616e7366657220756e7375636365737366756c00000000000000000000005f82015250565b5f611015601583610e32565b915061102082610fe1565b602082019050919050565b5f6020820190508181035f83015261104281611009565b9050919050565b7f4e6f7420612076616c69642070726f706f73616c0000000000000000000000005f82015250565b5f61107d601483610e32565b915061108882611049565b602082019050919050565b5f6020820190508181035f8301526110aa81611071565b9050919050565b7f566f74696e6720706572696f64206973206f76657200000000000000000000005f82015250565b5f6110e5601583610e32565b91506110f0826110b1565b602082019050919050565b5f6020820190508181035f830152611112816110d9565b9050919050565b7f4e6f7420656e6f75676820616d6f756e7420746f20766f7465000000000000005f82015250565b5f61114d601983610e32565b915061115882611119565b602082019050919050565b5f6020820190508181035f83015261117a81611141565b9050919050565b7f4e487b71000000000000000000000000000000000000000000000000000000005f52601160045260245ffd5b5f6111b882610b6d565b91506111c383610b6d565b92508282019050808211156111db576111da611181565b5b92915050565b5f6111eb82610b6d565b91506111f683610b6d565b925082820390508181111561120e5761120d611181565b5b92915050565b5f6060820190506112275f830186610bfb565b6112346020830185610c22565b6112416040830184610c0a565b94935050505056fea26469706673582212204b811f474f7dc3fdca5ec6ae67a8defcbbb6e297c4816b390bc8ca8ff1c23f8d64736f6c634300081e0033",
    "linkReferences": {}
  },
  "methodIdentifiers": {
    "casteVote(bytes32,uint256)": "f43dba77",
    "choiceVoted(bytes32,address)": "a9a51c89",
    "createProposal(uint256,uint256,bytes32)": "2e7107a2",
    "defaultMinValueToVote()": "4be2fcf7",
    "hasVoted(bytes32,address)": "aadc3b72",
    "minValueToCreateProposal()": "43e8da35",
    "owner()": "8da5cb5b",
    "proposalByHash(bytes32)": "3fee0dfa",
    "proposals(uint256)": "013cf08b",
    "votesPerChoice(bytes32,uint256)": "bb8a4f81",
    "withdraw()": "3ccfd60b"
  },
  "id": 21
}